:020000040800F2
:100000007006002041580008C9570008CB57000867
:10001000CD570008CF570008D15700080000000056
:10002000000000000000000000000000D35700089E
:10003000D557000800000000D7570008D95700081E
:100040006B5800086F58000873580008775800086C
:100050007B5800087F58000883580008875800081C
:100060008B5800088F5800089358000897580008CC
:100070009B5800089F580008A3580008A75800087C
:10008000AB580008AF580008B3580008B75800082C
:10009000BB580008BF580008C3580008C7580008DC
:1000A000CB580008CF580008D3580008D75800088C
:1000B000DB580008DF580008E3580008E75800083C
:1000C000EB580008EF580008F3580008F7580008EC
:1000D000FB580008DD570008FF58000803590008C6
:1000E000075900080B5900080F5900081359000858
:1000F000175900081B5900081F5900082359000808
:10010000275900082B5900082F59000833590008B7
:10011000375900083B5900083F5900084359000867
:10012000475900084B5900084F5900085359000817
:100130002DE9F04F0FF2A41CA1B0DCE90089CDE954
:1001400000892A9DDFF8109C049100248DF843500B
:100150000D944FF0FF38824616461F460FE0B34617
:100160002C461BF8011B0498D0470028049000F08F
:10017000A2800D98401C641E0D90F2D17619307843
:10018000252808D1002100220791089209910A929E
:100190000B910C920DE06A464146304601F033F86F
:1001A000050001D10D98A1E0D9D50125E6E741F080
:1001B000010116F8010F2028F9D023280CD02B2894
:1001C00004D02D2805D0302809D076E041F0020176
:1001D000EFE741F00401ECE741F00801E9E741F005
:1001E0001001E6E70F9209E00F98484505DA00EBA9
:1001F000800402EB4402303A0F92761C3278A2F16E
:1002000030000A28F0D330782E2818BFCDF8388077
:1002100022D116F8010F2A2807D138683860761CD9
:1002200050F8042B38600E9216E02D280CBF761C77
:10023000002000220E920AE040B90E9A4A4505DAE3
:1002400002EB820403EB4403303B0E93761C3378BD
:10025000A3F130020A2AEFD3ADF8401021A0317883
:1002600000F0E2FF08B116F8010B8DF842009DF88E
:100270004200682804D1307868280AD1622105E05C
:100280006C2804BF30786C2803D171218DF842109E
:10029000761C12A806903A4616F8013B02A9504671
:1002A00000F064F838B912AA02A9504600F0CAF961
:1002B00000287FF564AF404618E02A2892D13A68BA
:1002C0003A6052F8040B3A6000280F9003D5404280
:1002D0000F9041F00401761C95E70000000000003B
:1002E00000000000686A6C747A4C000021B0BDE820
:1002F000F08F622820D0682811D06A2803D06C289B
:1003000027D0712825D10868C01D20F0070008609B
:10031000D0E9002308300860194610467047002ACB
:100320000A680A60106803D0121D0A6000B217E064
:10033000121D0A6080B217E0002A0A680A6010687D
:1003400003D0121D0A6040B20AE0121D0A60C0B25A
:100350000AE0002A0A680A60106803D0121D0A60C9
:10036000C1177047121D0A60002170477CB50D4609
:1003700011461C462E69B4F1250200F051811C3A49
:1003800000F08680121F022A40F282800E3A00F0AE
:100390000B81521F5AD0093A7AD0921E16D0521EA3
:1003A00035D0521E022A73D9121F30D0521F00F0CE
:1003B0009A80521E4AD0521E00F0E480D21E00F0F5
:1003C0000181921E42D0D21E40D02FE195F83A40D2
:1003D0006C2C09D06869421C6A610A680A6052F88C
:1003E000043B0A6033542BE10A680A6052F8043B6C
:1003F0000A600093002201924FF0FF332B636A469C
:10040000294600F09AF9002840F11A8105E195F893
:100410003A000122FFF76DFFC5E900010023994270
:1004200004DA6869411C69612D220DE0288F81077B
:1004300004D56869411C69612B2205E0C00722D5FB
:100440006869411C6961202232541CE095F83A0029
:100450000022FFF74EFFC5E9000195F838000107BB
:1004600011D5D5E900230020834208BF82420AD07B
:1004700044F02000782806D1686930213154401CAE
:10048000421C6A613454214668693044E86087E060
:100490000868C01D20F007000860D0E9002308307C
:1004A0000860C5E90023D5E90001C80F04D06869D8
:1004B000411C69612D220DE0288F810704D56869F0
:1004C000411C69612B2205E0C00704D56869411C05
:1004D00069612022325468693044E8602146284628
:1004E00000F03AFAACE005F13A02507820B14FF052
:1004F000FF340FF6343074E01078622808D0682892
:1005000024D06A2812D06C282ED071280ED02BE06F
:100510000A680A6052F8040B0A6020B94FF0FF34F1
:100520000FF61C305DE0E96A017089E00A680A6034
:1005300052F8040B0A6020B94FF0FF340FF6003078
:100540004FE0EA6AD317C0E9002379E00A680A603D
:1005500052F8040B0A6020B94FF0FF340FF6E02088
:100560003FE0E96A01806BE00A680A6052F8040B18
:100570000A6020B94FF0FF340FF6C42031E0E96A79
:1005800001605DE00A680A6052F8040B0A6000210D
:1005900020F0000221F0FF33C5E90023EE6078214E
:1005A000284600F02DF94BE06C2285F83A200B68C4
:1005B0000B6053F8042B0B6052BB4FF0FF340FF667
:1005C000B4200EE095F83A206C2AF0D00868086054
:1005D00050F8044B0860EC603CB94FF0FF340FF664
:1005E000782000F049FE201A76BD2E6B002E04D52F
:1005F000204600F061FE044608E032460021204615
:1006000000F088FE002814BF041B3446AC6117E0DC
:10061000294600F092F8002812D54FF0FF3076BD41
:100620006869411C69612522325409E06969481CE6
:10063000686125227254210002D0431C6B6134543E
:10064000002076BD2DE9F0410E4605469046726BBE
:100650007069316AB46A121AB069521A716A121A50
:10066000F069521A121A96F83800141B41070DD47B
:10067000002C0BDD2746B0682021A8470028B06079
:1006800057D0F06A401C7F1EF062F4D17369424675
:100690003146284600F0B0FC00284AD1376A002FC6
:1006A0000ADDB0683021A8470028B06041D0F06A68
:1006B000401C7F1EF062F4D1B369F26831462846CF
:1006C00000F09AFCA8BB776A002F09DDB0683021E2
:1006D000A847B06068B3F06A401C7F1EF062F5D195
:1006E000F068B169F36942183146284600F084FC8D
:1006F000F8B9B76A002F09DDB0683021A847B060AB
:10070000B8B1F06A401C7F1EF062F5D196F838004F
:1007100041070BD5002C09DDB0682021A847B06047
:1007200038B1F06A401C641EF062F5D10020BDE8CB
:10073000F0814FF0FF30BDE8F0812DE9F8470D461C
:10074000A3B02F6B002F0646904648BF6FF00047BE
:100750000FF63C1400F00AFED4E90023696B401840
:10076000CDE90123812828BF4FF0FF3042D2002479
:10077000002F33DDD8F8001001AA684600F04BFDC9
:100780008146B9F1000F38D4D8F8000010B9B9F19A
:10079000010932D44F4521DB6869484481280AD3D6
:1007A0000021696303AA29463046FFF74BFF040086
:1007B00014D40020686103ABD5F814A04A466946FA
:1007C00003EB0A0000F0E6FDCA44C5F814A058F88F
:1007D000040B002818BFA7EB0907C9D14CB903AA1D
:1007E00029463046FFF72EFF044614B90020686101
:1007F0006863204624B0BDE8F0874FF0FF34F8E787
:100800002DE9FC4707468C463E69BCF16F0F08BFD7
:10081000082405D04CF02000782814BF0A241024A6
:100820003C25D7E90023BCF1640F18BFBCF1690F68
:100830009046994606D100218B4203DAD8F1000890
:1008400069EB49094FF0000AD14508BFD0451FD1D7
:10085000386BE8B9082C4BD197F83800010747D519
:1008600030203B2586F83B0042E000280ED597F863
:10087000380000F01400102808D17B6B7969386AC1
:100880005B1A1B1A9A1A002AC8BF3A62BDE8F3879E
:100890008DF800C0404649462246E31700F0D2FDDD
:1008A0003032D0B26D1E3A28019504DB9DF800006D
:1008B000A0F151018A187255404649462246E31775
:1008C00000F0C0FD89468046D14508BFD04503D021
:1008D000F86871198842DDD3082C09D197F83800DF
:1008E000010705D5705D302802D06D1E302070558F
:1008F000C5F13C02BA617119F960386B8242B4DA11
:10090000821A3A624FF6EF70398F01403987BDE89D
:10091000F3872DE9D04306460F4614464FF00008F2
:10092000DFF8389412E0E00707D542464B463046E0
:10093000394600F09FFE06460F464046494642466D
:100940004B4600F097FE641080468946002CEAD1A1
:1009500030463946BDE8D0832DE9F34F054641F0D6
:1009600020048DB0D5E90089612C02AE09D0286B36
:10097000002848BF062003D408BF672C01D10120FE
:100980002863D5E9002358004015401C0ED11903F7
:100990000CD00320A8619DF8381061391A2902D2C1
:1009A0000FF2F46111E00FF2F4610EE05900491505
:1009B000491C0FD118030DD10320A8619DF83810F0
:1009C00061391A2914D30FF2DC61E868032200F0C0
:1009D000E1FCD3E1194621F00043B3F5801F104636
:1009E0000DD20027BB4208BFBA42019703D111E0E4
:1009F0000FF2AC61E9E701AA00F00EFF0AE0DFF8B0
:100A0000607307EB1352DFF85C3301921940DFF893
:100A100058331943C5E90001612C0ED1E868302133
:100A20000170821CEA609DF8381061290CBF7821A2
:100A3000582141706869801C6861D5E900AB2BF0D2
:100A4000004300202AF00002834204BF82420023B8
:100A500000F05B81612C40F0AA80286B002847BF22
:100A600021210091401C0090009F7F1C4046494678
:100A70000022002300F008FFD94601998DF80820D4
:100A800038BF89F00049091F002FD04601910DF1B0
:100A9000090040F34981B349DFF8D0B20C91064612
:100AA000404649460022002300F006FF80F03B81CB
:100AB0004800400D00F11C0211D0002A0FDD40F269
:100AC000FF70824205DB09F0004040EA0B01002084
:100AD00013E00C98014041EA025140460DE029F034
:100AE0000043002028F00002834208BF82420FBF6B
:100AF00040461C22404600F0F7FE8046894600F042
:100B000091FFFF1F002F044609DD00F0A9FF0246F8
:100B10000B464046494600F0B5FF80468946F01D29
:100B2000072104E004F00F0200F8012D2411002C2D
:100B300001DD491EF6D5491E5CBF002200F8012DDB
:100B4000F9D5ECE00020194602AA0A4400E05B1E39
:100B500012F80149491E8442F9D00F2804D10DF141
:100B60000900425C521C4254002904D50198001D22
:100B700002AE5B1C0190591E12D49DF83800721809
:100B8000A0F13A07147804F130085FFA88F43A2C9F
:100B9000A8BFB844491E02F80189F3D58DF8380082
:100BA000286B002840F1B080591E2963ACE0404614
:100BB00049460022002300F067FE019938BF89F002
:100BC000004947F297504143694A91FBF2F2019282
:100BD000D2F1070204DD40464946FFF79AFE0AE0DB
:100BE000524200206349FFF794FE02460B464046FE
:100BF000494600F0B9FF8046662C286BDFF878B1D3
:100C000006BF019F0A3706273F18142FC8BF1427B5
:100C100030208DF8080089460DF1090000E03046CB
:100C2000002F34DD06464046494601F0C1F8014632
:100C30000A4606F1080304200A26B2FBF6F606EB84
:100C4000860EA2EB4E02303203F8012C0A22B6FBCC
:100C5000F2F202EB820EA6EB4E063036401E03F88F
:100C6000026DE9D1083F002F03F10806D7DD0846E1
:100C700001F0B2F802460B464046494600F002FF3A
:100C800000225B4600F0F6FC80468946CBE70DF17A
:100C90000901401A0DF1090604E00199491E401EA0
:100CA0000191761C31783029F7D0662C02D1019958
:100CB000491C03E0652C0CBF012100212B6BCB18D4
:100CC0009842B8BF431E002B1ED4834204DAF05C66
:100CD0003528A8BF392000DA30201946721E02EBF1
:100CE000010800E05B1E18F80199491E8145F9D002
:100CF000392802D1705C401C7054002904D5019839
:100D0000401C16465B1C0190019800B200901BB27B
:100D10009DF838103246284600F034F82EE0C61D03
:100D2000002F3FF7BDAE30460DF10901401A009982
:100D300003468842C8BF0B46002B0DF109063FF55C
:100D40002FAF8342BFF6FEAE0DF10900C15C07294B
:100D50007FF7F8AE0F20F6E6CBCCCC0C0000244099
:100D600002FCFFFFFFFF0F800000E03F0000F07F6C
:100D7000A08601000000F03F84D797410FB0BDE886
:100D8000F08F00002DE9F84783B006468A461746E3
:100D9000984600F042FAB8F1000F406A356B90F8BF
:100DA000009002DC4FF00108BFA74AF02000BDF917
:100DB0003040662808BF641C15D0672840F0848046
:100DC00014F1040FC0F28680AC4280F2838096F862
:100DD0003800641C010702D4A845B8BF454620B2BC
:100DE0002D1A48BF00250FFA84FAF068B169BAF1EC
:100DF000000F25DC4A1C30234354002D03DC96F8F9
:100E00003800010703D5F06800F80290521C15EB7A
:100E10000A0FB8BF6C4220B2441941424445B8BFE2
:100E2000A046B26171620FFA88F5F561F068B369A6
:100E30002A463946184400F0ADFA641BB462C4E097
:100E400022B29045084417DA4246394600F0A2FA29
:100E5000B0694044B061AAEB0801002D716203DC67
:100E600096F838100A0705D5F16801F80090F06986
:100E7000401CF061B562A8E0394600F08BFAB06919
:100E8000002D5044A8EB040803DC96F838100A073C
:100E900003D5F16801F80090401CB0610FFA88F0AA
:100EA0008542F368B069B8BFA8460FFA88F207EB2D
:100EB0000A01184400F06EFAB1690FFA88F0014493
:100EC000B161281A706280E0BAF1610F14D14FF05D
:100ED000700A16E0A84504DA96F838100A0758BFD9
:100EE00045466D1E48BF0025BAF1670F14BF4FF08D
:100EF000450A4FF0650A04E0BAF1410F08BF4FF010
:100F0000500AB169F368481CB061002D17F8012B35
:100F10005A5403DC96F838100A071BD5F168431CB5
:100F2000B36101F80090002D14DDA8F101080FFA5B
:100F300088F039468542F768B8BFA8460FFA88F2AC
:100F4000F81800F027FAB0690FFA88F108446D1A12
:100F5000B0617562F068B1690844002C80F800A0A7
:100F600003D42B224270811C03E02D214170644286
:100F7000811C00206A460AE023460A2493FBF4F40D
:100F800004EB8405A3EB450302F8013B401C24B2AB
:100F9000002CF1DC012806DC4AF02002652A04BF9F
:100FA000302201F8012B48B9302001F8010B07E08D
:100FB000401E1DF80030303301F8013B0028F7DCFB
:100FC000F268B0691044091AF16196F8380000F02F
:100FD000140010280DD17269B169706A8A18F1691C
:100FE0008218B06A8A188218706B8242BCBF821A5B
:100FF000326204B0BDE8F087F8B505460E461746E4
:101000001C46002074B117F8011BB068A847B060F7
:1010100030B1F06A401CF0620020641EF3D1F2BDD2
:101020004FF0FF30F2BD00007072696E74665F733E
:101030003A20256E20646973616C6C6F776564007B
:101040007072696E74663A2062616420256E206158
:101050007267756D656E74007072696E74665F7329
:101060003A2062616420257320617267756D656E38
:10107000740000007072696E74665F733A2062617A
:101080006420256C7320617267756D656E74000055
:1010900000000000000000006E616E004E414E0036
:1010A000696E6600494E46003000F0B40246106892
:1010B00095681318506803EB5004C0071DD54D44C4
:1010C0001BE013F8017B05F8017B491EF9D1A0B1A3
:1010D000B60813F8011B06F00306032E08BF13F829
:1010E000016B01EB06214942801C294405D011F80F
:1010F000016B05F8016B401EF9D1A3420ED013F825
:10110000016B16F0030104BF13F8011BC91C300961
:101110000F28DAD113F8010B0F30D6E7F0BC02F13B
:101120000C007047613807E005E0A0F161011A2961
:1011300001D20120704741381A288041C00F704702
:10114000A0F10901052901D3202801D10120704710
:1011500000207047A0F141011A2938BF20307047A4
:101160002F48704770B45368D418042B09DA41B182
:10117000057804F8015B10F8016B16B15B1C491E81
:10118000F3E7536070BC704738B514461D4661B133
:10119000FFF7E8FF61686A6B204690476FF0010235
:1011A000811A02D0491E01D001E024E026E000218E
:1011B000616032BD38B50446084611001D4615D0A1
:1011C0002A46FFF7CFFF6968049B1CB95A6B284673
:1011D000904704E00A469B6B2946204698476FF0EB
:1011E0000102811A02D0491E01D001E003E005E0AE
:1011F0000021696032BD6FF0010032BD4FF0FF3059
:1012000032BDDA6B1047064BBEE71CB5044C0094A8
:10121000FFF7D0FF16BD024BF3E70248704700000E
:1012200048000020100000200278C9B28A421AB19A
:101230001CBF10F8012FF9E718BF0020704730B429
:10124000002513E050F8042BD30744BFA9F1010394
:101250009A18091F042942F8045BFAD213468C0736
:1012600044BF15809B1CC90748BF1D7050F8041B64
:101270000029E7D130BC704780B500B906A0054908
:101280000B681BB122220021984701E000F0B1FD5C
:10129000222002BD6C020020636F6E73747261695C
:1012A0006E742068616E646C65723A2062616420BD
:1012B0006D6573736167650000F10103810704D0F8
:1012C00010F8011B820781B1FAD10268A2F1013145
:1012D000914311F0803104BF50F8042FF6E709BAAA
:1012E000B1FA81F100EBD100401CC01A7047B1F592
:1012F000807F02D34FF0FF307047017001207047AC
:101300000A780260087800E00078401E8041C043FF
:10131000C00F7047C9B2830706D0521E22D310F8FF
:10132000013B9942F7D11FE0083A13D302F10402BE
:1013300041EA012141EA014150F8043B121F21BF5B
:101340004B40A3F1013C2CEA030C1CF0803FF3D08E
:10135000C9B2001F083210F8013B521E28BF91EAA3
:10136000030FF8D818BF0120401E704780B5FFF763
:10137000F7FE006C02BD03681AB95A1E02600846E7
:101380007047197811B94FF0FF307047591C016050
:101390001878704762B38B0708D0521E11F8013BD2
:1013A00000F8013B00F024808B07F6D1830740F062
:1013B000208000BF103A07D330B4B1E83810103A9B
:1013C000A0E83810F9D230BC530724BFB1E80810A8
:1013D000A0E8081044BF51F8043B40F8043BD20792
:1013E00024BF31F8022B20F8022B44BF0B78037086
:1013F0007047121F17D35B0009D151F8043B20F846
:10140000023B1B0C121F20F8023BF6D20BE051F8F6
:10141000043B00F8013B1B0A20F8023B1B0C121F87
:1014200000F8013BF3D238BF121D521E24BF11F841
:10143000013B00F8013BF8D870470268531C036079
:1014400011707047BBBBE1B1B2F5803F80F07E8088
:10145000022A1ED98C46B1FBF2F102FB11C31B0418
:1014600043EA1043B3FBF2FC02FB1C3380B240EAB8
:101470000343B3FBF2F002FB103240EA0C400023BE
:101480007047022A05D98446B0FBF2F002FB10C275
:1014900070474AB105D100F0010249085FEA300007
:1014A000704700220023704700F0A6BC0B0002002A
:1014B000002100207047904271EB030CF6D3B3F586
:1014C000803F2FD2F0B5B3FA83F7B1FA81F4A7F1D8
:1014D0000F0E3D1B5340CEF1200602FA0EF2F341EF
:1014E0005340B5F10F0746D80F3C2C444140C4F19E
:1014F0002006A040F1414140B1FBF3F603FB161179
:10150000A2FB0645001BA94102D2761E8018594154
:1015100080EA010221FA0EF362FA0EF200215A402B
:101520003046F0BD30B4B1FBF3FC03FB1C11A2FB51
:101530000C45001BA94103D2ACF1010C80185941A4
:1015400030BC02460B46604600217047B2F1807FF6
:1015500065D3F0B5B2FA82F7B1FA81F4C7F10F069C
:101560003D1B22FA06F307F1110EF24120355A40D5
:10157000B5F10F07B8D94140C4F12006A040F141B0
:101580004140B1FBF3FC03FB1C11A2FB0C45001B0B
:10159000A94103D2BCF1010C801859410F2F12D37D
:1015A0000F3FC90341EA5041B1FBF3F603FB1611AB
:1015B000A2FB0645D4EBC030A94102D2761E8018AA
:1015C000594146EACC3C07B34140C7F12006B84038
:1015D000F1414140B1FBF3F603FB1611A2FB0645B6
:1015E000001BA94102D2761E8018594180EA0102EF
:1015F00021FA0EF3C7F1200462FA0EF20CFA07F09A
:101600005A402CFA04F13043F0BD80EA010221FA7D
:101610000EF3002162FA0EF260465A40F0BD8C468D
:10162000B1FBF2F102FB11C31B0243EA1063B3FBEF
:10163000F2FC02FB1C331B024CEA002043EA10635D
:10164000B3FBF2FC02FB1C331B024CEA002043EA12
:101650001063B3FBF2FC02FB1C331B024CEA0020BC
:1016600043EA1063B3FBF2FC02FB1C324CEA00209D
:1016700000237047B0B581EA030C0CF0004C40F237
:10168000FF7515EA11541DBF15EA1357AC42AF425E
:1016900039E0E41923EA455343F48013C90241F0C9
:1016A000004141EA505EC7021100A7FB0202002878
:1016B0004FF00000EEFB01204FF00001E3FB07219B
:1016C00018BF42F00102401800214941E3FB0E011E
:1016D000A4F580640F0302D252004041494154F105
:1016E00001046CDD470872F1004250F1000051EB3B
:1016F0000451A1F580115CBF41EA0C01B0BD4CEA78
:1017000005510020B0BD05EA1357AC4214BFAF42EB
:1017100041E050EA410E1CBF52EA430E02E061462E
:101720000020B0BD24423C441BD15FEA070EF6D036
:10173000090302BF01460020AEF1140EB1FA81F791
:10174000AEEB070401FA07FE0C37C7F1200100FADF
:1017500007F7C8404EEA000E23EA455343F48013CE
:10176000A2E733F00043B3FA83F704BFB2FA82FE74
:1017700077440B3FE41BB7F1200E2FBF02FA0EF3A4
:10178000BB40C7F1200E22FA0EFE38BF43EA0E031B
:10179000BA40641C82E750EA410E14BF52EA430E7D
:1017A0006FF000014FF4001717EB430F8ABF194683
:1017B00017EB410FB5E74CEA05510020B0BDD4F15D
:1017C0000104B4F120070FDAC4F12007520828BF42
:1017D00042F0010210FA07F501FA07F7E1BF2A43C8
:1017E000E0403843E1400FE0352C98DCC7F120049D
:1017F00052EA400220FA07F218BF42F0010231FA21
:1018000007F0A1400A43002172F1004250F10000AC
:1018100051EB0C01B0BD000010B5144600F002F809
:10182000226010BDC1F30A5343B14A0012F5001FF4
:1018300028D2A3F2FE32A1EB0251704750EA410CCC
:1018400020D001F0004C31EA0C01B1FA81F204BF62
:10185000B0FA80F3D2180B3AB2F120032CBF00FA91
:1018600003F1914041EA0C013EBFC2F1200C20FA85
:101870000CF319439040524240F2FD33D21A01EB6F
:1018800003517047002270474FF4001C1CEB410FBE
:1018900094BF1CEB430F09E041EA030C50EA4C0CE7
:1018A00052EA0C0C03D2994208BF9042704714BF11
:1018B0008B428242704700004FF4001C1CEB410F2A
:1018C00094BF1CEB430F09E041EA030C50EA4C0CB7
:1018D00052EA0C0C03D28B4208BF8242704714BFFD
:1018E0009942904270470000124254D440F2FF7C6B
:1018F0001CEA11530FD0634531D09B1863453CBFA0
:1019000001EB0251704701F0004141EA0C51002007
:10191000AFF30080704750EA410320D001F0004C43
:1019200091EA0C011CD0B1FA81F30B3B9A420DD91C
:10193000D21A994051EA0C01C3F1200C20FA0CFC98
:1019400061449840531C40F2FF7CD7E7914041EA44
:101950000C01C2F1200C20FA0CF31943904070479F
:10196000B0FA80F31533202BE0D3202AEED3203AAF
:10197000203B9A4209D9D21A00FA03F141EA0C013C
:101980000020531C40F2FF7CB8E700FA02F141EA64
:101990000C0100207047524240F2FF7C1CEA1153B8
:1019A0000DD06345DBD0B2EB030C3CBFA1EB025181
:1019B00070470CF1010221EA035141F4801150EA11
:1019C000410CCCD001F0004C352A27DC30B481EA40
:1019D0000C01B2F1200309DAC2F12003044601FA36
:1019E00003F5D0402843D1409C400CE0C3F12002D5
:1019F000450020FA03F418BF44F0010421FA03F073
:101A000091400C43002174F1004550F1000051EB6E
:101A10000C01244230BC7FF47BAF7047614600204C
:101A200076E70000C1F30A5340F2FE329B1A14DD40
:101A3000D3F120034FEAE17208DDC90241EA5051B7
:101A400041F00040D84080185040704703F2E13028
:101A500010B1D24382F00040704700207047000070
:101A6000C11768B14840401AB0FA80F29040D21CC9
:101A7000C907C2F5846241EA025202EBD021400557
:101A80007047000070B44FF0004591EA030F40F139
:101A9000BD816B40841A71EB030603D2001BB14178
:101AA000121973414FF4001C1CEB410F34BF7CEB47
:101AB000430442E00C0DA4EB1356352E4FDC45EAEF
:101AC000C323DB0A45EAC121C912B6F120050DDDA9
:101AD00063FA05F6EB4086EA0305124218BF45F0AB
:101AE0000105C01851F100010CD213E062FA06F5AD
:101AF000F2405540F3415A40B340F3405A408018F9
:101B0000594107D349085FEA30005FEA350528BF2D
:101B100045F0010501F58011420875F1004250F1D0
:101B2000000041EB04514E0016F5001F70BC38BF99
:101B300070470020090D090570471CEB410F10D2BA
:101B400052EA43060BD0BCEB410F05D80C0DAB435A
:101B5000661E342EB6DD02E0AB438018594170BCDE
:101B6000704770BC70470000F0B540F2FF7581EA25
:101B7000030C0CF0004C15EA11541DBF15EA135765
:101B8000AC42AF42E5E0BC41C1F31301C3F3130320
:101B9000801A994143F4801304D2641E40004941E5
:101BA00080185941C90241EA5051B1FBF3F603FBD9
:101BB0001611A2FB0675D7EBC020A94102D2761EF2
:101BC00080185941C90241EA5051B1FBF3FE03FBB1
:101BD0001E11A2FB0E75D7EBC020A94103D2AEF1B6
:101BE000010E80185941890241EA9051760546EA72
:101BF0008E2EB1FBF3F603FB1611A2FB0675D7EB95
:101C00008020A94102D2761E80185941C90241EABA
:101C100050514EEA060EB1FBF3F603FB1611A2FB80
:101C20000675D7EBC020A94102D2761E8018594113
:101C3000C90241EA5051B1FBF3F703FB1711A2FBB4
:101C40000735D3EBC020A94167F100070CBF004264
:101C500047F0010766F3D5274FEA1E31B80814F59F
:101C6000806412DDBD0775F1004250EB0E5051EB60
:101C7000045111F5801F5CBF41EA0C01F0BD4CF02E
:101C80007F6141F0E0410020F0BDBD076D0840EAF2
:101C90000E5041F48011D4F10104B4F120060ADAA7
:101CA000C4F120060200E04001FA06F3E1401843C7
:101CB000B24015430EE0342C13DCC6F1200445EA93
:101CC00040056D0820FA06F2154321FA06F0A140FE
:101CD0000D43002175F1004250F1000051EB0C0161
:101CE000F0BD00205FEA0C01F0BDCFB992185B4156
:101CF000B3FA83F704BFB2FA82F6BF190B3FB7F10C
:101D000020062FBF02FA06F3BB40C7F1200622FAD5
:101D100006F638BF3343BA401CB1E419641E33E7FA
:101D20007F4231F00041B1FA81F404BFB0FA80F68D
:101D3000A4190B3CB4F120062FBF00FA06F1A14014
:101D4000C4F1200620FA06F638BF3143A0403C1B00
:101D50001AE7AC421ABF05EA1357AF4212E050EA45
:101D600041061CBF52EA4306BFE750EA410730462E
:101D700061461CBF41EA0551F0BD52EA430C08BF61
:101D8000C143F0BD00204FF4001616EB410F98BF81
:101D900016EB430F08BF16EB410F24BFC14305E00C
:101DA00016EB430F0CBF61464CEA0551F0BD000035
:101DB000400D491840EA81200CD2490DA1F58061FF
:101DC000491C40F0004005DBD1F11F0154BFC84061
:101DD000C017704700207047014648B1B0FA80F143
:101DE0008840C91CC1F58461090501EBD02140057B
:101DF0007047012000F0C0B87047000070B44FF089
:101E0000004591EA030F7FF545AE6B40841A71EBF4
:101E1000030604D26E40001BB141121973414FF406
:101E2000001C1CEB410F34BF7CEB430683E00C0D20
:101E3000A4EB1356362E00F37C80012E45EAC32313
:101E400041DC43EA525312BFD20292025B082405DE
:101E500045EAC12141EA5051D2EBC020994125D435
:101E600007D1B0FA80F610FA06F162D000202036D1
:101E700008E0B1FA81F6B140C6F1200220FA02F280
:101E80001143B0404FEAF474B4EB465434F0010609
:101E90004FEA74040AD8D6F50016760D04F0004413
:101EA000F04061FA06F25040F1404840C00A40EA72
:101EB000415021F0004128BF5FEA500550F1000079
:101EC00044EBD12135E0DB0A45EAC121C90AB6F16C
:101ED00020050EDD42EA0242120CC5F1200603FA8B
:101EE00006F6EB4042EA06056D42984161F10001B9
:101EF0000DE062FA06F5F240554063FA06FC82EA0C
:101F00000C02F3405A406D42904161EB030111F421
:101F1000801F05D1641E620502D06D004041494119
:101F200021F48011430875F1004350F1000041EBAA
:101F3000045170BC70471CEB410F15D223F00043D5
:101F400052EA43060BD04FEA4C0CBCEB410F04D8CD
:101F50000C0D661E342EB7DDEBE7801A994150EA6E
:101F6000410608BF0021E4E708BF1CEB430F28BF70
:101F70006FF00001DDE7000080B5AFF30080024A9A
:101F800011001820ABBEFBE72600020003460846FE
:101F9000C1680269491C521E002A0261C16003D453
:101FA00000680122002118474FF0FF3070470346B8
:101FB00008461146C268521E11F1010FC26002D0DC
:101FC00000680022184770472DE9F04F0FF2E41E19
:101FD0008BB0DEE90067CDE9016703914FF0FF3870
:101FE0001C68149DDFF8C89104948DF82B500024D0
:101FF000069405920446464609E0002E9DF82A0004
:1020000048BF002600B1761C05994A1C05920021A4
:10201000009101AB059942466846FFF7F6F80028A3
:10202000074605DC059801784F1EBF41FF43FF0FAF
:10203000009800F007FF00F023FF28B30698401C2B
:102040000690012203980021A047824600F018FF65
:102050000028F3D10699491E1AF1010F00F0A28061
:102060000691002203985146A04705980099C0198F
:102070002529059027D100782A282AD10598401CC7
:10208000059010F8011D25E00098DDF814A0252822
:102090000CBFA7F1010BBB46BBF1010BE5D40698C1
:1020A000401C0690012203980021A0471AF8011B4A
:1020B0008842F1D0024603A92046FFF778FF0020AE
:1020C000B0426EDA6CE000980028A0D1B04268DA25
:1020D00066E000218DF82810002108910AE0089898
:1020E000484505DA00EB800301EB430130390891E4
:1020F000501C0590059A1178A1F130000A28EED302
:10210000CDF824802DA01178FFF78EF820B1059826
:10211000401C0590401E00788DF829009DF829008C
:10212000682805D10599087868280CD1622206E054
:102130006C2802BF059908786C2804D17122491CCB
:102140008DF829200591059801780FF61840FFF7C2
:102150006BF8A8B90698401C06900122039800214C
:10216000A047074600F08CFE0028F3D10698401ED9
:1021700017F1010F069003D0039800223946A047BB
:1021800003A9204600F021F800283FF736AF25B11B
:1021900010F1230F01D1404614E0002E48BF06463F
:1021A00030460FE0304600280691FAD5F3E70000EC
:1021B000CBCCCC0C0000000000000000686A6C74FE
:1021C0007A4C00000BB0BDE8F08F70B505460C46A8
:1021D0000020A368A0771E78253E6ED01C3E25D037
:1021E000361F022E22D90E3E63D0761F1AD0F61E5D
:1021F0007CD0B61F1AD0B61E12D0761E12D0761E14
:10220000022E13D9361F0DD0761F13D0761E012E45
:1022100008D9361F4FD0B61E04D0F61E02D070BDAE
:10222000002265E02846BDE87040E5E12846BDE8AB
:102230007040F3E2207F002849D1607F622808D0F7
:1022400068281CD06A280ED06C2821D071280AD0AA
:102250001EE06168616051F8040B616000281DD0C8
:10226000E168017033E06168616051F8040B6160FE
:10227000002813D0E268D317C0E9002327E0616883
:10228000616051F8040B616040B1E16801801EE0BB
:102290006168616051F8040B616038B90FF6CC20B9
:1022A000FEF7EAFF4FF0FF34201A70BDE1680160CD
:1022B0000DE06C20607701221AE0E068401CE060CD
:1022C000012220680021A8470646252E01D10120C1
:1022D00070BD324621462846FFF769FE16F1010F10
:1022E00002D14FF0FF3070BD002070BD4FF0FF32C3
:1022F0002846BDE8704021E0C9B208E00378994261
:10230000A4BF90F802C08C4514DAC01CD21E032A68
:1023100009D343782D2BF1D010F801CB8C4518BF91
:10232000521EF4D106E03AB110F8013B8B4218BFBF
:10233000521EF8D101207047002070472DE9F84F58
:102340008AB00D46002607968246697F05926C2961
:102350000CBF4FF0010BB3460FF62C22D2E900015F
:10236000059ACDE90301002A29D5A868411CA96076
:10237000084601785E2903BF401CA86010F8014D93
:102380000024D5F8088098F800005D280CBF08F1FB
:10239000010040465D21FEF747FF002800F015814F
:1023A000A0EB08010091A8600098032807DB821EBB
:1023B0002D2108F10100FEF7ADFF00B1012668698B
:1023C000002805DC0598002814BF6FF000400120AC
:1023D0002861287FB8B968686860BBF1000F0168A0
:1023E00008D0001D6860019169B94FF0FF340FF605
:1023F000A01018E0001D6860029121B94FF0FF3471
:102400000FF6B4100FE0287FB0B9E87FA0B169687B
:10241000696051F8040B6960B0F1004F07D34FF0C9
:10242000FF340FF6B810FEF727FF201ACAE6A96995
:10243000884288BF0846A861089409960027DDF8FD
:102440001490029C079ECDF814B0CDF81880DDF8EA
:1024500004B007E004F8018B0120A877A969491EA0
:10246000A96102262969491E2961E868401C0029E2
:1024700000F1B780E860012228680021D04780463B
:1024800018F1010F19D15346DDF814A04246294630
:102490001846FFF78CFDB9F1000F03D0F0B2022807
:1024A00000F08F80F0B2022800F09980F0075AD433
:1024B00018F1010F40F0898055E0B9F1000F02DDFD
:1024C00000F0DEFC10E01FD50998002808980ED116
:1024D0000028009A0698414604D1FEF71BFF002809
:1024E000D1D011E0FEF716FF0028CCD10CE0002877
:1024F000009A0698414603D1FFF7FEFE20B9C2E7D5
:10250000FFF7FAFE0028BED1059850B9287F0028B1
:10251000A7D1A86900289DD15346DDF814A0012653
:10252000B4E702A80146079001F807807F1C03ABBF
:102530003A4601A8FEF769FE811C02291CD8DFE893
:1025400001F002061500042F46F001068AD3002F81
:102550004EDD0798EA687F1E521EC15DEA600022C8
:102560002868D047F3E74FF0FF302BE6019919B9FF
:1025700002A8FEF7A1FE401C10F1030F08BF0020C7
:10258000064608E00798EA687F1E521EC15DEA60B1
:1025900000222868D047BE42F4DB287F58B9A869DA
:1025A00008B901265EE701984BF8040B0121A977D1
:1025B000A869401EA86102266869401E686100275C
:1025C00050E7287F58B9A86908B90020FAE5BAF1A0
:1025D000000F19BF0020CBF800000021217001205E
:1025E000F0E55346DDF814A0E8604FF0FF384DE702
:1025F000F6B2002EB7D0E8E72DE9F8450D4688B0D1
:10260000804668690028D8BF6FF000402861EA461C
:102610004046FFF7BBFC2B2818BF2D2807D18DF8AB
:10262000000029464046FFF7B1FC0DF1010AA968F8
:1026300009780022642914BF75290A240DD069295C
:1026400008BF002409D06F2908BF082405D07029CD
:102650001ABF41F0200178291024302817D12946CB
:102660004046FFF793FC40F020010126C9B27829CB
:102670000AD1002C18BF102C13D129464046FFF771
:1026800085FC102400260CE05CB9082409E004B99C
:102690000A24564601461AE0286801220021C04754
:1026A0000126302840F0AB80E8682969401C491EAB
:1026B00000292961E860EFD54FF0FF300122A2E048
:1026C000E960012228680021C0470146012211F17A
:1026D000010F00F09C80C8B26128A8BFA1F1570388
:1026E0000ADA4128A8BFA1F1370305DA30380A28F1
:1026F00034BFA1F13003FF23DBB2E0B2834280F0AC
:1027000086800DF11F00864238BF06F8011BE9687C
:102710002869491C401E00282861D1D54046E9603F
:102720004FF0FF38012742462946FFF740FC3FB9EA
:102730006E450ABF18F1010F00204FF0FF306AE02C
:1027400000213170287F002857D1A86800786428BC
:1027500018BF692811D12246684600F0E7FB6B7F5D
:102760000122622BAA771ED0682B2FD06A2B23D090
:102770006C2B33D0712B1FD030E02246684600F01E
:102780008BFC0122AB68AA771A78702A26D06A7F60
:10279000622A08D0682A19D06A2A0DD06C2A1DD066
:1027A000712A09D01AE06B686B6053F8042B6B60D8
:1027B000002A19D0107020E06B686B6053F8042B6E
:1027C0006B60002A10D0C2E9000116E06B686B60F4
:1027D00053F8042B6B603AB110800EE06B686B60AD
:1027E00053F8042B6B603AB90FF21060FEF744FD0A
:1027F0004FF0FF35281A0EE0106001200BE0324642
:1028000011003FF446AF30210AF8011B41E7404672
:102810008846174687E709B0BDE8F0852DE9F84FEF
:102820000E4692B071690029D8BF6FF00041316146
:1028300081463146FFF7AAFB00272B2818BF2D2819
:102840000DF10C0807D18DF80C0031464846FFF712
:102850009DFB0DF10D080A2130288DF80010BA46B5
:102860001BD131464846FFF791FB40F02001C9B229
:10287000782903D04FF0010A5146CAE0302088F889
:10288000000088F8011048463146FFF77FFB102111
:1028900008F102088DF80010EEE740F02001CAB2FE
:1028A0006E2A52D18DF800A06E2108F8011B48460F
:1028B0003146FFF76BFB044644F02000C0B26128AC
:1028C00040F02482612108F8011B48463146FFF799
:1028D0005DFB044644F02000C0B26E2840F0168232
:1028E00031464846FFF752FB0246282A00F0D481C1
:1028F00031464846FFF75BFB6E2008F8010B0021CC
:1029000088F80010307F002840F0C4819DF8000056
:102910000B280B4680F277813A4603A800F034FD7D
:1029200098E14FF0FF35284600F016FE00282C46AF
:1029300040F0B281303D0A2DC0F0AE815F2C00F036
:10294000AB81292C40F0E281D6E7C9B2692940F079
:10295000B8818DF800A008F8011B48463146FFF702
:1029600015FB044644F02000C0B26E2840F0CE8132
:102970006E2108F8011B48463146FFF707FB044665
:1029800044F02000C0B2662840F0C081314648467D
:10299000FFF7FCFA40F02001C9B2692906D00246CF
:1029A00031464846FFF703FB6620A6E73146484616
:1029B000FFF7ECFA044640F02000C0B26E2840F069
:1029C000A58131464846FFF7E1FA044640F0200071
:1029D000C0B2692840F09A8131464846FFF7D6FADE
:1029E000044640F02000C0B2742840F08F81314688
:1029F0004846FFF7CBFA044640F02000C0B27928E1
:102A000040F08481662078E7306801220021C847C1
:102A10000121302840F04F813169491E3161F06851
:102A2000401C0029F060EFD54FF0FF304FF0010A55
:102A300044E1F160012230680021A847012210F131
:102A4000010F00F04481C3B2612BA8BFA0F1570170
:102A50000ADA412BA8BFA0F1370105DA303B0A2B77
:102A600034BFA0F13001FF219DF80030C9B2994276
:102A700080F02D81242CBABF0BF8010B641C09F1E6
:102A800001093069401E3061F168491C0028D0D529
:102A900002950196F16001204F464FF0FF358DF809
:102AA0000100FEF7BAFB406A01788D4206D10BF8AF
:102AB000015B01990298FFF769FA054634BBDDF81E
:102AC0000890019E9DF8012006E0F1600122306827
:102AD0000021C84705460122302D40F0FF803069B3
:102AE000401E30617F1EF168491C0028EDD5CDF8ED
:102AF00008900196F16001204FF0FF358DF801003C
:102B0000002F03D530200BF8010B7F1C2846DDF881
:102B10000890019E9DF800509DF8011005E0F060BE
:102B2000012230680021C847012110F1010F00F097
:102B3000DB80C3B2612BA8BFA0F157020ADA412B98
:102B4000A8BFA0F1370205DA303B0A2B34BFA0F151
:102B50003002FF22D2B2AA4280F0C680242CBCBF31
:102B60000BF8010B641C3169491E3161F068401C8F
:102B70000029D4D58DF80050D846F0604FF0FF34CE
:102B80004FF0010AB7E0702840F0C08008F8014B10
:102B900031464846FFF7FAF92B2818BF2D2805D1F2
:102BA00008F8010B31464846FFF7F0F9002104E030
:102BB000306801220021C8470121302840F0B88048
:102BC0003169491E3161F068401C0029F060EFD581
:102BD0004FF0FF300121ADE0284612E0BBF1080FB5
:102BE000BCBF04F8010B0BF1010B3169491E3161C7
:102BF000F068401C0029F060EED43068012200210A
:102C0000C84701219EE0002203A800F0BDFB0B464F
:102C10005A00520D02EB870411D0002C0FDD40F258
:102C2000FF72944206DB4C4B01F0004040EA030186
:102C300000200FE06FF31E5343EA04510AE021F035
:102C40000043002520F00002AB420EBFAA42BA00AA
:102C5000FEF74AFE0122B277727F6C2A18BF4C2A17
:102C600008D17368736053F8042B736042B1C2E9F2
:102C700000010FE07268726052F8044B726034B960
:102C800066A0FEF7F9FA4FF0FF34201A66E000F074
:102C90006DFC2060012061E03169491E3161F068FE
:102CA000401C0029F0603FF53CAE30680122002155
:102CB000C847054637E65FEA010A02D0302108F826
:102CC000011B4D460024C346B9465246B7E602955D
:102CD000019605464F468DF80120E2E6CDF80890B2
:102CE00001968DF801200BE75FEA010AD8460446F9
:102CF0008DF800500AD09DF8001044F020000A29F9
:102D0000C0B27FF440AF65283FF440AF2246314661
:102D10004846FFF74CF9BAF1000F7FF4F0AD03A875
:102D200080450ABF14F1010F00204FF0FF3015E07D
:102D30000A0002D0302208F8012B4FF0000B4FF0B0
:102D4000FF354446A0F130020A2AFFF447AFA046FF
:102D500004468A46DAE700000000F07F13B0BDE8C1
:102D6000F08F000063436E5B000000007363616ED0
:102D7000665F733A2062616420256E206172677518
:102D80006D656E740000000000000000000000008F
:102D90007363616E665F733A2062616420256C63C1
:102DA0002C20256C732C206F7220256C5B206172A7
:102DB00067756D656E7400007363616E665F733A6C
:102DC000206261642025632C2025732C206F7220E3
:102DD000255B20617267756D656E74007363616E4B
:102DE000665F733A206261642025632C2025732C72
:102DF000206F7220255B2073697A65007363616EB2
:102E0000665F733A2062616420696E7465676572FB
:102E100020617267756D656E740000007363616E8A
:102E2000665F733A2062616420666C6F6174696EDC
:102E3000672D706F696E7420617267756D656E7451
:102E40000000000000B5014611F1010F83B00AD067
:102E500009A0D0E90023CDE90123684601AAFEF7C5
:102E6000DAF9012803D04FF0FF3003B000BD9DF820
:102E7000000003B000BD00000000000000000000E2
:102E800010B50446FEF76CF901462046096ABDE814
:102E9000104008472DE9F8430D00804691461E4634
:102EA00008BF6D46444600E0641C2078FFF7E8FF49
:102EB0000028F9D120782D2816BF2B2814F8017B83
:102EC0002B2733464A462946204600F033F82A6825
:102ED000944205D1C5F8008000200021BDE8F483AC
:102EE0002B2F05D14FF00043994209D2BDE8F4835E
:102EF0002D2FFBD1B1F1004F12D301D801280FD3F0
:102F0000AFF300800EB1012030602D2F19BF4FF0BC
:102F1000FF306FF0004100204FF00041BDE8F48326
:102F2000404261EB4101BDE8F483000000BF002393
:102F3000B0E700002DE9FC4F85B00D4617460BB1F8
:102F400000221A600290044600E0641C2078FFF71B
:102F500097FF0028F9D120782D2818BF2B2807BF0C
:102F600014F8010B8DF800002B218DF80010002FB4
:102F7000019503D4012F01D0252F04DB002D56D05D
:102F80000298286053E0002F0ADD102F04BF20783C
:102F9000302802BF607840F0200078280ED10AE087
:102FA0002078302818BF0A2708D1607840F0200028
:102FB000782802D11027A41C00E00827049400E020
:102FC000641C20783028FBD0002603944FEA0608C2
:102FD00033A0B246C14600258DF801004FEAE77BD9
:102FE00010E09DF80150451BA7FB060107FB0A11E5
:102FF000B046EDB20BFB06110023D146461941EB5A
:10300000030A641C207800F0E5FA00BF24A30146FF
:103010003A461846FEF77EF90028E2D10499A1420B
:103020003A4607D1019810B1019902980860002032
:1030300000212DE024A1039B895CE31A591A002981
:103040001AD40FDC0021701B6AEB01018A4509D3F9
:1030500001D8864206D3D317FEF7F4F9494508BFD5
:10306000404509D0AFF30080069808B10121016006
:103070004FF0FF36B24606E09DF800002D2802D141
:1030800076426AEB4A0A019800B104603046514624
:1030900007B0BDE8F08F000000BF00234AE7000042
:1030A00030313233343536373839616263646566BE
:1030B0006768696A6B6C6D6E6F7071727374757628
:1030C0007778797A0000000000004129211C191747
:1030D0001615141312121111111010100F0F0F0FDB
:1030E0000E0E0E0E0E0E0E0D0D0D0D0D0D00000030
:1030F0007CB51D4621F000431446B3F5801F20F037
:10310000000209D20026B34208BFB24200960ED098
:103110006A46FEF781FB0AE0DFF8C46306EB135250
:103120000092DFF8C033DFF8C02311401943224674
:103130002B46FEF79FFA0B465A00009C520DA4182E
:103140003AB1002C05DD40F2FF72944200DB4EE004
:1031500048E021F00043002420F00002A3420EBF0B
:10316000A242009AFEF7C0FB7CBD7CB51D4621F053
:1031700000431446B3F5801F20F0000209D2002658
:10318000B34208BFB24200960ED06A46FEF744FB37
:103190000AE0DFF84C6306EB13520092DFF8443389
:1031A000DFF844231140194322462B46FEF7DCFC8E
:1031B0000B465A00009C520DA4183AB1002C05DDB4
:1031C00040F2FF72944200DB11E00BE021F000437B
:1031D000002420F00002A3420EBFA242009AFEF794
:1031E00083FB7CBD6FF31E5343EA04517CBDBF4B90
:1031F00001F0004040EA030100207CBD2DE9F84CBD
:10320000002A82468B461F4600F0BA802BF000450C
:1032100000202AF00004854208BF844200F0B080FC
:103220004FEA4B004015401C08BF5FEA0B3100F02D
:10323000A7800020002AAE4911D55242B4A6082525
:103240001446002C18BF002D4FD0E20744BFD6E92A
:103250000023FEF70FFA640808366D1EF1E777DDEC
:10326000ABA608241546EA0744BFD6E90023FEF7BB
:1032700001FA6D100836641E002D01DD002CF2D11C
:1032800002460B4650465946FFF732FF8B468246B0
:103290002BF0004300202AF00002834208BF824244
:1032A0002C4655D04FEA4B004015401C08BF5FEA42
:1032B0000B314DD0002C4BDD504659468D4A8E4B7C
:1032C000FFF716FF21F00045002220F00003954291
:1032D00008BF93423AD04A005215521C01D10B0349
:1032E00034D0641E002CE9DC30E002460B46504628
:1032F0005946FFF73AFF8B4682462BF000430020E9
:103300002AF00002834208BF824221D04FEA4B00DC
:103310004015401C08BF5FEA0B3119D0C4B15046BC
:103320005946764A764BFFF7E3FE21F0004500222E
:1033300020F00003954208BF934207D04A0052157F
:10334000521C01D10B0301D0641EEAD182468B4688
:103350002BF0004300242AF00002A34208BFA2423F
:1033600007D04FEA4B004015401C08BF5FEA0B3105
:1033700006D1AFF300801FB1386840F0010038601B
:1033800050465946BDE8F48C2DE9F94987B01F0035
:103390001CBF00203860079E0C46154607A800F0A9
:1033A00023F9C21020F0080002F001020128059262
:1033B00004952FD10220009001AB07992246304698
:1033C00000F0A4F9040002D1002000211DE00298C1
:1033D000FEF746FB022C18DB0DF10C08661EDFF829
:1033E00024B102460B4600205946FEF743F9044635
:1033F00058F8040B0D46FEF733FB22462B46FEF72A
:10340000FDFC761E02460B46EDD1049A019C3B461C
:10341000A2184DE002284ED1009001AB0799224638
:10342000304600F055FA040002D10020002119E0D6
:103430000298FEF715FB022C14DB0DF10C08661E3A
:10344000DFF8C4B000225B46FEF714F9044658F8D2
:10345000040B0D46FEF704FB22462B46FEF7CEFC7E
:10346000761EEFD1019B0C466200520D03EB020564
:1034700011D0002D0FDD40F2FF72954206DB1B4B91
:1034800001F0004040EA030100200FE06FF31E54FA
:1034900044EA05510AE021F00045002620F000042E
:1034A000B5420EBFB4421A46FEF71EFA049A3B46D6
:1034B000FFF7A4FE0CE0032802D100200B4907E02F
:1034C000042807BF4FF0FF306FF0004100200021BB
:1034D000059A0AB181F0004109B0BDE8F089000009
:1034E00002FCFFFF0000E03FFFFF0F800000F07FC5
:1034F0000000F03F3CBF737FDD4F1575436FAC6438
:103500002806C80A65CDCD410000B041000000008A
:1035100000000000000024400000000000005940AE
:10352000000000000088C3400000000084D79741DD
:103530000080E03779C34143176E05B5B5B89346AF
:10354000F5F93FE9034F384D321D30F94877825A7B
:103550003CBF737FDD4F157510B50446FDF700FEC7
:10356000014620460969BDE81040084701F00042C5
:103570008B1AA3F16051B1F5801F0ADBB1F17F6FA7
:103580001FD242EAC102C10071F1004142EB50700A
:1035900070470B15C3F10903212B10D2890241EAB0
:1035A000905180020128494141F0004121FA03F085
:1035B000C3F12003994071F1004150417047100060
:1035C00070476FF0000013EB103F5CBF000E42EA43
:1035D000C050704710B50446FDF7C2FD01462046B5
:1035E000896ABDE8104008472DE9F84305460C46B6
:1035F0002E68002700E0761C3078FFF741FC002899
:10360000F9D130782D280CBF08272B2800D1761C43
:10361000307840F020016E2927D1707840F02000EA
:10362000612802BFB07840F020006E2802D02E68DA
:10363000002746E0F61CB046042798F8000028282A
:103640003FD118F8019F4846FFF786FF0028F8D1C0
:10365000A9F130000A28F4D398F800005F28F0D0D0
:1036600029282ED108F101062BE069292CD1707888
:1036700040F020006E2802BFB07840F0200066289D
:1036800002D02E6800271CE016F8030F40F020003F
:10369000692802BF707840F020006E2847F00307C9
:1036A0000FD1B07840F02000692802BFF07840F0D8
:1036B0002000742805D1307940F02000792808BF17
:1036C000761DF4B126601CE0302802BF707840F00F
:1036D0002000782813D1B01C01782E2908BF401C87
:1036E0000078A0F16101062921BFA0F14102062A5C
:1036F00030380A2803D2B61C47F0020701E047F031
:1037000001072E603846BDE8F28300002DE9F14F35
:103710008CB09246169A02EBC20200202D2AC8BF36
:103720002D22186083465860002501E0491C0125C0
:103730000C78302CFAD000241F460B78A3F1300609
:103740000A2E80F09780944207DB3B685B1C3B604D
:103750000B78302B05D0012003E0303B0DF804300E
:10376000641C491C0125E8E73868401E3860761C57
:10377000012530783028F7D03078A0F130010A29BF
:1037800080F08780444507DA30380DF80400641C67
:103790003A68521E3A6003E0302818BF4FF0010922
:1037A000761C0125E8E70DF1FF32115D49B93A6851
:1037B000521C3A60641E002CF5DC04BF8DF800B08A
:1037C000012400284BD0092394FBF3F3C4F1090131
:1037D00003EBC3035918092291FBF2F202EBC20278
:1037E000DC468A1A18BF4FF0010B5A468B46A44597
:1037F0005BDA09219BFBF1F11DF80C3001EBC101F3
:10380000BBEB01011DBF57F8221001EB810103EB57
:103810004103521C47F822300BF1010B0CF1010C53
:10382000E5E700240025DFF8A4C0314608E065453F
:1038300004DA05EB850402EB4405303D491C012404
:103840000A78A2F130060A2EF1D30E46BEF12D0FF2
:10385000396808BF6D426D183D6004B91E46BAF163
:10386000000F03D000B90C9ECAF8006058460DB096
:10387000BDE8F08F0E4690468146FDF7CEFC406ACB
:1038800031780278914208BF761C002C7FF474AF27
:103890006FE75FEA090128468DD00DF1FF3111F87D
:1038A0000820521C01F8082085E79346327842F040
:1038B0002002652AD3D1334616F8011F2B2916BFE3
:1038C0002D2916F801EB4FF02B0EAAE700E1F505C4
:1038D0002DE9FD4E8BB00024DDF858901C60C9EB3B
:1038E000C909B9F1230FC8BF4FF023095C60A24694
:1038F00002E0491C4FF0010A08783028F9D000BFD7
:103900000FF2B81573A2A3460A9509920F461E46F8
:10391000397816222846FDF7FDFC002800F09A8031
:10392000D94503DA3068401C306007E00A9A0999EB
:10393000801A085C0DF80B000BF1010B7F1C4FF097
:10394000010AE5E73068401E30607F1C4FF0010A35
:1039500038783028F6D0397816222846FDF7DAFC78
:10396000002800F08480D9450ADB00BF59A1401B24
:10397000085C0DF80B000BF1010B3168491E31603A
:103980007F1C4FF0010AE6E70DF1FF335A5C4AB99C
:1039900033685B1C3360491E0029F5DC04BF8DF8D9
:1039A0000040012132689200BAF1000F326046D027
:1039B0004FF0070C91FBFCFCC1F10705CCEBCC0CE4
:1039C0006544072295FBF2F20023C2EBC202AA1A59
:1039D00018BF0124A4468B425CDA072295FBF2F261
:1039E0001DF80340C2EBC202AA1A1ABF56F82C20D7
:1039F00004EB02140CF1010C46F82C406D1C5B1C0E
:103A0000E9E7002300252C48394608E0854204DA1E
:103A100005EB850307EB4305303D491C01230F7877
:103A2000A7F13009B9F10A0FF0D30F46BCF12D0F01
:103A3000316808BF6D426D18356003B917460C999F
:103A400021B1BAF1000F08BF0B9F0F6020460EB0E6
:103A5000BDE8F08EFDF7E1FB406A397802789142CB
:103A600008BF7F1CBBF1000F7FF475AF70E75946AC
:103A7000894591DA1DF80920072A06DD0DF1FF318D
:103A800011F80920521C01F8092049463268521CDD
:103A9000326081E7397841F0200170296446CED147
:103AA0003A4617F8011F2B2916BF2D2917F801CB0D
:103AB0004FF02B0CA5E7000000E1F5053031323363
:103AC0003435363738396162636465664142434450
:103AD00045460000000102030405060708090A0B19
:103AE0000C0D0E0F0A0B0C0D0E0F0000F8B50400A4
:103AF00025D004F13C05697821B9002028702046C2
:103B000000F08FFC2421697020680268520852007E
:103B100002602068016841F4004101602068026889
:103B200022F40042026000F020FF01466068DFF8E6
:103B30007423904205D2DFF87033994205D20120F8
:103B4000F2BDDFF868038142F9D32068DFF8603303
:103B50004668B1FBF3F3B60943EA86164660266869
:103B6000376A6068904206D34FF4967043434FF42F
:103B70007A70B3FBF0F35B1CBF0943EA871333622F
:103B8000491E2368DE696768974206D27F0000F00D
:103B900043F8042913D2042111E0A06820B907EBEF
:103BA000470700F039F805E01920474300F034F8E2
:103BB00041F4804108050CBF012141F40041DFF8C8
:103BC000240306400E43DE6122681368E169206A1F
:103BD00023F0C0030B43034313602268DFF838036C
:103BE000936821690340E0680B43034393602168B5
:103BF000CA68A3696069120A034343EA0222CA60E1
:103C00002068016841F00101016000206860202106
:103C100069702063A870F2BDB1FBF7F1491CC1F3D4
:103C20000B0170472DE9FC4700F04AF900F042F91A
:103C300057D100F02FF9002853D13878012850D0FF
:103C400000F055F8234630680A9D016821F40061B0
:103C50000160212078701021B97000207860C6F8CA
:103C60002490A6F82AA02A46708DDFF8B01230857D
:103C7000F1623046414600F00BFA00282FD1009047
:103C800031684A69009289690091009A308D002854
:103C90002AD000F0F2F8E8B900F0F4F8708D411E77
:103CA0007185308D401E308531684A6953070DD5C6
:103CB00080B258B1706A02780A61706A411C716200
:103CC000708D411E7185308D411E318500F0D0F818
:103CD0000028DBD07868042801D100F08CFA01209C
:103CE00000E00220BDE8F68700F0F0F8FAE70121D5
:103CF000397030680268D10703D4026842F00102CB
:103D0000026070472DE9FC4700F078F900F008F9EF
:103D100004D100F0FBF800F0ADF9002840F08F80EE
:103D20003078012800F08B8000F08CF82B4620685A
:103D30000A9F00F092F870701021B170002070603E
:103D4000C4F82490A4F82AA03A46608DDFF8CC117C
:103D50002085E1622046414600F0E4F9002863D165
:103D6000208D10B900F00AF918E0012802D100F006
:103D700069F905E002282068016804D100F052F9D1
:103D80000A6062B60AE000F041F907E000F031F99C
:103D9000002849D100F0FEF800F0CFF8208D00286F
:103DA0004AD004283DD20128F0D000F0A9F809D16A
:103DB000002200F05FF9002836D100F0F9F800F099
:103DC00099F8E7E7002200F055F900282CD100F01F
:103DD000E8F84FF47A7E20680169606A0170616AD0
:103DE000208D4A1C411E62622185608DDFF8782299
:103DF000411E618519211368B3FBF1F1B1FBFEFE91
:103E0000232000FB0EF00090216800F02CF828B170
:103E100048694207F9D500F0A3F8D0E700F095F81B
:103E200002E000F0E6F808B1012009E000F0D0F867
:103E3000B4D500F059F8AFE700F078F800E00220C0
:103E4000BDE8F6870121317020680268D10703D4EC
:103E5000026842F0010202607047016821F40061CB
:103E60000160222070470098401E00900098704723
:103E700022462946304600F059BA224629463046A5
:103E800000F02ABA706A326801781161706A411CC8
:103E900071627047009419230122DFF8EC1130465B
:103EA00000F0B6B9A186010080841E0000093D0023
:103EB00040420F0006F13C070446787820287047FE
:103EC0000646884691469A4600F084BD30680168EF
:103ED00041F400710160202078700021B970002049
:103EE000387070470030FFFF0069616A0870606ACF
:103EF000421C70472185608D411E618562B6704706
:103F00000228DFF8881100953B4670470095192379
:103F10000122DFF874117047007CFFFF0000FFFFF3
:103F200004F13C0605467078202870472020707008
:103F30000021B170002030707047208D6262411EF8
:103F40002185608D411E618570472063202171703D
:103F5000B070716841F02001716062B630707047D6
:103F6000086840F40070086021680869616A087098
:103F7000606A421C208D6262411E70470090216879
:103F80004A6900928B69009300980A6842F40072B3
:103F90000A60704720680169606A0170616A4A1CA2
:103FA00070472068016821F48061016072B6704733
:103FB00072B62068016841F40071016020680169EF
:103FC000606A0170616A208D4A1C411E62627047FE
:103FD00020680169606A0170616A208D4A1C411E77
:103FE00062622185608D411E6185206841694A07B2
:103FF00070472A463946204600F0B4B904460020EE
:104000000090884691469A4600F0E4BC41F48061F5
:1040100001600020009021684A690092896900913E
:104020000098704741F40061016072B60020009072
:1040300021684A6900928B69009300980A6822F40B
:10404000806270472068016821F48061016072B667
:104050000020009021684A6900928B6900930098C3
:104060000A6842F4007270470C00002043460022A8
:104070004FF00111204600F0CBB82068016841F4F0
:104080008071016070470000020010000400010010
:10409000F8B504460D46E06A08281EBF0128DFF87F
:1040A0006411884216461F4602D100F035F804E03C
:1040B000206B122801D1FFF7E0FF00973346FFF78E
:1040C000D6FF0028206807D00168CA0544BF4FF416
:1040D000007020640320F2BD2169B1F5804F08BF54
:1040E00005F0FE050ED0E90901F0060141F0F001EE
:1040F00001613B463246DFF8101100F07AF848B90A
:104100002068EDB205613B463246DFF8001100F051
:1041100070F800B10120F2BD2068026842F480729C
:10412000026070472DE9FC4704460E46E06A2168AC
:1041300090460A6842F480620A6008281EBF01287F
:1041400030498842994602D1FFF7E6FF04E0206B30
:10415000112801D1FFF791FFCDF80090FFF786FFFE
:10416000002820684FF4007530D12169DFF89CA049
:10417000B1F5804F04D146F00106F6B206612FE09A
:10418000F70907F0060747F0F00101614B46424688
:10419000DFF8741000F02DF8002824D12068F6B262
:1041A000066100F023F8F0B9009021684A69009296
:1041B0008B690093434600980A6842F480720A6053
:1041C000CDF80090FFF753FF30B120680168CA05B1
:1041D00048BF2564032007E0206847F0F107076126
:1041E00000F004F800B10120BDE8F6874B464246D6
:1041F0005146204634E03068016841F400710160A6
:10420000704700000000FFFF0800010002000100ED
:104210002DE9F041069F05460E4690461C463102A8
:104220002868090E01290CBF40698069304080B2BE
:10423000B1B288420CBF0120002040450DD114F1DD
:10424000010FECD000F0C6FBC01B844201D3002C50
:10425000E5D100F05DF8012000E00020BDE8F0812C
:10426000F8B505460E4614461F463102090E286869
:1042700001291BD14169314089B2B2B291421BD0B0
:1042800041694A051AD5FFF7B7FF6FF480602A68C5
:104290005061002105F13C002963202242708170A9
:1042A000426842F004024260017013E081693140CB
:1042B00089B2B2B29142E3D10020F2BD14F1010FF4
:1042C000D3D000F087FBC01B844201D3002CCCD19B
:1042D00000F01EF80120F2BD70B505460C461646EA
:1042E00028684169080611D4284600F067F858B9D3
:1042F00014F1010FF4D000F06DFB801B844201D358
:10430000002CEDD100F004F8012070BD002070BD3C
:1043100000202863202105F13C00002241708270BA
:10432000416841F0200141600270704770B5054658
:104330000C46164628684169480711D4284600F003
:104340003DF858B914F1010FF4D000F043FB801B85
:10435000844201D3002CEDD1FFF7DAFF012070BDBC
:10436000002070BD70B505460C46164628684169A8
:104370004A0617D44169CA060BD400F02BFB801BF8
:10438000844201D3002CF1D100F00EF841F020015D
:1043900004E06FF01001416100F006F84160027026
:1043A000012070BD002070BD00202863202105F190
:1043B0003C000022417082704168704701684A6980
:1043C00053050FD56FF480624A61002101633C30D0
:1043D000202242708170426842F004024260017003
:1043E0000120704700207047414881B0016841F0CA
:1043F00001010160026802F0010200920099426826
:1044000042F080524260406800F080500090009876
:104410003848016821F0E06141F00071016001B0AD
:10442000704730B585B000F05DF82468324DAC427D
:104430001BD12F4C206840F0080020601222216818
:1044400001F008010091C02100982C4801910292CE
:104450000321049100F043F8606840F400106060AC
:10446000606800F400100090009805B030BD30B5D1
:1044700085B000F037F82468214DAC422CD11C489F
:10448000204C016841F480410160026802F48042DE
:1044900000920099026842F0040202604FF4007139
:1044A000006800F00400009002220098019102923E
:1044B0000321049100F012F84FF480600021019074
:1044C0000291039100F00AF800220021252000F05B
:1044D000A1FA252000F0BBFA05B030BD204601A9A5
:1044E00000F0E0BA044601A8102100F0C3BB0000B0
:1044F000181002400400014000540040000C01402C
:1045000000380140000801402DE9F843040016D0AE
:104510002078DFF87C64C10713D5706800F00C00C8
:10452000042807D0706800F00C00082840D170689B
:10453000C1033DD53068810303D56068002800F0D1
:10454000F4802078DFF85874810719D5706810F06E
:104550000C0F07D0706800F00C00082860D170685C
:10456000C1035DD43068810703D52069012840F07C
:10457000DC803168606921F0F80141EAC0013160F6
:104580002178080770D5A069DFF81814002865D0D5
:1045900001220A6000F01EFA0546706A810700F1E8
:1045A000C68000F017FA401B0228F6D9032035E137
:1045B0006068B0F5803F04D1306840F480303060EE
:1045C00014E008B930680AE0B0F5A02F306806D1D1
:1045D00040F480203060316841F4803105E020F4FF
:1045E00080303060316821F480213160606858B1DA
:1045F00000F0F0F9054630688103A2D400F0EAF932
:10460000401B6528F7D3D1E700F0E4F90546306890
:10461000810396D500F0DEF9401B6528F7D3C5E786
:10462000206970B10121396000F0D4F90546306885
:10463000810700F1B68000F0CDF9401B0228F6D9C1
:10464000B4E7386000F0C6F905463168880797D5A9
:1046500000F0C0F9401B0228F7D9A7E7086000F076
:10466000B9F90546706A810770D500F0B3F9401BAF
:104670000228F7D99AE708B9306A09E00528306AB4
:1046800006D140F004003062306A40F0010005E0DD
:10469000400840003062306A20F00400306241F28D
:1046A0008938E06868B100F095F98146306A810781
:1046B00000F1848000F08EF9A0EB09004045F5D3AD
:1046C00074E700F087F98146306A810776D500F0FB
:1046D00081F9A0EB09004045F6D367E700F07AF9CD
:1046E000401B02287BD961E700F074F9001B022807
:1046F00040F28F805AE700F093F804463068810159
:1047000040F18B8000F066F9001B0228F6D94DE7D6
:1047100001280AD07068226A00F48031914202BFF9
:1047200000F47010616A884277D0012076E0DFF8EB
:1047300064020168C9084FF47A72B1FBF2F2009288
:1047400000BF0098411E00280091F9D12078410750
:1047500039D5F0690025C10009D4F06940F08050D6
:10476000F0610125F06900F0805000900098DFF8BA
:104770003882D8F80000C1051BD4D8F8000040F4F6
:104780008070C8F8000000F025F98146D8F80000D4
:10479000C1050ED400F01EF9A0EB09006528F5D381
:1047A00004E73068616920F0F80040EAC100306039
:1047B000E6E6E06801287FF45EAF65E71DB1F069C9
:1047C00020F08050F061E06938B3716801F00C01AD
:1047D00008299DD002288ED100F022F805463068C5
:1047E00081013FF57BAF206AB0F5803F05D171684C
:1047F000A06821F40031014371607268206A616A27
:1048000022F4741202430A437260012000F009F896
:104810000446306881017FF567AF0020BDE8F28370
:104820000020386600F0D6B82DE9F0410400884633
:1048300072D05E4E00F077F802D200F06FF86BD1C4
:104840002068534D810712D5400703D5696841F4AC
:10485000E06169602078010703D5686840F4605022
:1048600068606968A06821F0F001014369602178FF
:10487000C80749D56068012802D129688A0303E086
:104880000228296802D18A0102D445E08A0743D56B
:104890006968890840EA8100686000F09BF8074673
:1048A0006868616800F00C00B0EB810F2CD000F05C
:1048B00091F8C01B41F289318842F1D3032021E0F5
:1048C0002078410705D56A68E06822F4E062024377
:1048D0006A602178080706D56968206921F460516B
:1048E00041EAC001696000F023F86A683049294B49
:1048F000C2F30312895CC84018602848006800F0C1
:10490000BDF90020BDE8F081306800F00700804567
:10491000D6D200F003F8D3D00120F3E73168C908FC
:1049200048EAC1013160306800F007004045704737
:10493000204919480A6802F00C03082B00D0704780
:1049400010B500BF1EA4C2F38343D203E35C08D5B5
:10495000096858431EA3C1F340415A5CB0FBF2F012
:1049600010BD18461449484310BD0A48114A006852
:1049700013681249C3F3022206E006480D4A006894
:1049800013680E49C3F3C222895CC8407047000017
:10499000001002400C00002000127A0008000020E5
:1049A0000000424280044242007000400020024069
:1049B000305800080410024000093D005C5800080F
:1049C00002030405060708090A0B0C0D0E0F101050
:1049D0000102000001484068704700BF000000204D
:1049E0000901020002D4294881547047284B02F083
:1049F0000F021A4402F8041C7047264B19684FF640
:104A0000FF020002114000F4E0600843224908431D
:104A10001860704738B51F4B1C68C4F30223C3F1FC
:104A20000704052C28BF04241D1D072D34BF0023B7
:104A3000DB1E012505FA04F4641E2140994005FAA5
:104A400003F35B1E1A401143BDE83440C8E7010080
:104A500007D4012200F01F01104B8A40400943F89F
:104A60002020704710B5401EB0F1807F01D3012097
:104A700010BD0B4C60600F214FF0FF30FFF7B0FF0F
:104A80000021A16007202060002010BD00E400E0AC
:104A900018ED00E00CED00E00000FA0500E100E098
:104AA00010E000E02DE9F8470027BE46624A634B5C
:104AB0004FF00F0882460BE0D6683040D06006E029
:104AC00094604C68A402F7D5D0680643D6607F1C7A
:104AD0000E6836FA07F000F0AD80012000FA07F505
:104AE0002E40AE42F3D1486858B301281AD00228AC
:104AF0001FD0032833D0112817D012281DD0504CB6
:104B0000A0421CBF4F4CA0421BD04F4CA0421CBF28
:104B10004E4CA04215D04E4CA0421CBF4D4CA04262
:104B20000FD01EE0D1F80CE01BE0C86800F1040EC5
:104B300017E0C86800F1080E13E0C86800F10C0E19
:104B40000FE0886810B94FF0040E0AE001284FF01A
:104B5000080E14BFCAF81450CAF8105001E04FF004
:104B6000000EB6F5807F03D250464FEA870C05E071
:104B7000A7F108040AF104004FEA840C046808FA5B
:104B80000CF5AC430EFA0CF52C4304604868C000E9
:104B90009DD51868DFF8C0C040F0010018601C689F
:104BA00004F001040094BC000098B8085CF82050A0
:104BB00004F00C0408FA04F925EA0909274DAA456E
:104BC00008BF002518D0264DAA4508BF012513D0DF
:104BD000244DAA4508BF02250ED0234DAA4508BF83
:104BE000032509D0214DAA4508BF042504D0204D36
:104BF000AA450CBF0525062505FA04F444EA090474
:104C00004CF82040F0434C68E40314684CBF344334
:104C1000044014604C68A40354684CBF34430440FF
:104C200054604C689568E4024CBF46EA050400EA0B
:104C3000050445E7BDE8F187000401401810024073
:104C400000001110000012100000211000002210BE
:104C5000000031100000321008000140000801403F
:104C6000000C0140001001400014014000180140F8
:104C7000001C0140002200F021B8000038B50D4DA5
:104C80000D4B2A7804464FF47A711868B1FBF2F2A2
:104C9000B0FBF2F0FFF7E6FE50B9102C08D200226C
:104CA00021464FF0FF30FFF7B5FEAC60002032BD6B
:104CB000012032BD000000200C00002000B500BF24
:104CC000130096469446103928BFA0E80C50FAD835
:104CD0005FEA417C28BF0CC048BF40F8042BC907DD
:104CE00028BF20F8022B48BF00F8012B00BD0000B0
:104CF00038B5040001D1012032BD00F026F808B912
:104D000000F014F800F017F800F023F8FFE7416115
:104D100000F001F832BD2068C16841F40051C16063
:104D20000020686020216970A970704700212970F7
:104D30002046FFF79CBB242068702068C16821F4DE
:104D40000051C160204600F058BA04F13C05687873
:104D500070472068016921F4904101612068416930
:104D600021F02A0170472DE9F843054605F13C067C
:104D70000C46707820281746994642D10CB138006D
:104D800001D101203EE0307801283AD00121317074
:104D90000020706021227270FFF71CFEAF848046F5
:104DA000EF84A868B0F5805F04BF286900280EBFB3
:104DB0002746204600270021317004460EE014F8F3
:104DC000012B426007E02868002CF8D137F8021B5D
:104DD000C1F308014160E88C411EE9844346E88C38
:104DE000CDF8009000280FD000228021284600F046
:104DF0003DF90028E7D0032004E020207070002057
:104E000000E00220BDE8F28300224021284600F0A5
:104E10002DF90028F1D0EEE738B500F130039C7B86
:104E2000202C0FD109B1140001D1012032BD1C7B0F
:104E3000012C07D001241C7300251D60BDE83840FB
:104E400000F046B9022032BD2068C16821F010018F
:104E5000C1607047416921F040014161A06B70471A
:104E60007CB5044622681168D568536911F00F00BB
:104E700007D188065FD5AB065DD52046BDE87640F4
:104E800060E1D80702D415F4907F54D0C80705D547
:104E9000EA0503D5206C40F001002064480705D5E1
:104EA000DA0703D5206C40F002002064880705D59E
:104EB000DA0703D5206C40F004002064080707D50A
:104EC000AA0601D4D80703D5226C42F00802226456
:104ED000206C00282ED0880604D5A90644BF2046A1
:104EE00000F030F920684069216C0A0701D44006BF
:104EF0001BD5204600F007F9206841694A060FD506
:104F0000FFF7A8FF60B10FF231214163A06B00F001
:104F1000D8F900280ED0A06B416BBDE87C40084753
:104F20002046BDE8764000F055BA204600F052FA1F
:104F30000020206473BD206B012804F13D0353D190
:104F4000C80651D5EE064FD5002100911568009591
:104F50005168009100985169480624D5A16B0868F2
:104F6000406880B200287AD0A58DA84277DAE08523
:104F70008869202813D0D06820F48070D06000F0B9
:104F80006FF82068416921F040014161202058708C
:104F900000212163FFF758FFA06B00F06DF9A18D90
:104FA000E08D091A1AE0A08DE18D411AE08D0028EC
:104FB0001CBF88B2002852D0D06820F49070D06016
:104FC0002068426952085200426120205870002235
:104FD00022632068C26822F01002C2602046BDE849
:104FE0007C4089B200F0F7B9080629D52E0627D5EE
:104FF0001878212833D1A068B0F5805F04BF2069FC
:10500000002808D1206A0188C1F308015160206A94
:10501000811C216204E0206A411C216200785060FA
:10502000E08C401EE08480B2C8B92068C16821F0DD
:105030008001C1602068C16841F04001C16073BD5A
:1050400048060CD569060AD5D06820F04000D0602B
:10505000202119702046BDE8764000F0BDB973BD2F
:105060002068416949084900416170472DE9F041D4
:10507000069C05460E4690461F462868016831404A
:10508000B1420CBF01200020404517D114F1010F9F
:10509000F3D024B1FFF79EFCC01B8442EDD22868F8
:1050A000C16821F4D07100F00CF805F13C0020211A
:1050B0004170817000210170032000E00020BDE8F4
:1050C000F081C16028684169490849004161704721
:1050D00081628285C28500F13C0100224A60222360
:1050E0008B700A700168CB6843F48073CB600168F1
:1050F0004A6942F001024A610068C16841F020013A
:10510000C160002070470168CA6822F49072CA60CA
:1051100001684A69520852004A61016B012904D1B1
:105120000168CA6822F01002CA60202180F83E108F
:105130000022026370470000406A0021C185C184DB
:1051400000F048B91CB590F83E10222953D181686F
:10515000826AB1F5805F0AD1016969B9036859684B
:10516000C1F308011180826A911C81620FE000295D
:1051700004BF0169002902D10368596803E001688E
:10518000496801F07F011170816A4A1C8262C18DF9
:10519000491EC18589B261BB0168CA6822F020023C
:1051A000CA600168CA6822F48072CA6001684A69EC
:1051B000520852004A61202180F83E10026B012AF9
:1051C00015D1002101630168CA6822F01002CA608B
:1051D00002681168CB0606D500240094136800937A
:1051E000526800920099818D00F0F5F801E000F01E
:1051F000F5F8002016BD022016BD10B50446226841
:105200001169E06821F4405101431161D3681849E4
:10521000A0680B402169034360690B430343D360DB
:105220005169A06921F440710143516111498A42D9
:1052300002D1FFF7A2FB01E0FFF797FB626819219B
:1052400048439200B0FBF2F16423B1FBF3F203FB9D
:10525000121109013231B1FBF3F000F0F00101EB62
:105260000211226800F00F004018906010BD00008D
:10527000F3E9FFFF0038014010B590F82110022932
:1052800000F1380206D004231360002180F82010BA
:10529000012010BD01680B6823F00E030B60012391
:1052A00001680C68640864000C60916852688B4067
:1052B00053600121002280F8211080F82020002076
:1052C00010BDF8B590F821200024022A00F1340125
:1052D00003D00420486001245FE00268DFF8C46066
:1052E000136823F00E0313604FF48077026815688B
:1052F0006D086D0015604FF480320368B3424FF4BF
:10530000805519D9DFF89860B34208BF012210D048
:10531000DFF89460B34208BF10220AD0DFF88C6037
:10532000B34208BF3A4604D0DFF88470BB4208BFDE
:105330002A46DFF8803027E0DFF87CC063451CD0C8
:10534000DFF878E073451AD0DFF874C0634518D0F1
:10535000DFF87070BB420EBF2A46DFF86C50AB42DC
:1053600010D0DFF86870BB4208BF4FF4801209D03C
:10537000B34207D14FF0807204E0012202E0102214
:1053800000E03A46DFF848301A60012280F8212018
:1053900080F82040096801B188472046F2BD00002E
:1053A00008040240800002401C0402403004024015
:1053B0004404024004040240080002401C00024071
:1053C0003000024044000240580002406C0002409D
:1053D00004000240704770477047000000687F4932
:1053E000884200D0704770B57D4D7E4E2C7A1CB936
:1053F00064213046FFF73EFCA87A0D2802D03055D4
:10540000641C02E00120002468722C7205F10A017C
:1054100005F10C00BDE870400122FFF7FDBC7CB532
:1054200004460D461646052000F02CF98DF805506F
:10543000012100912D0A8DF804508DF80660032398
:1054400001AA21466848FEF7EDFB73BD3EB5044650
:105450000D46052000F016F98DF8075001202D0AA1
:105460008DF80650009002235F4D0DF10602214693
:105470002846FEF7D7FB01200090012301AA214610
:105480002846FEF73FFC9DF804003EBD2DE9F84399
:1054900000F00CF900F0B4F85448016841F0040140
:1054A00001600023026802F0040200920099026881
:1054B0004F4942F00802026000684E4A00F00800BE
:1054C00000900098484842604FF480420160836039
:1054D000C360026143618361C3610362FEF706FB3F
:1054E00008B100F0B4F83E4C3C48E0604FF4E131C4
:1054F000216100206061A061E0610C216062A06216
:10550000216204F10C00FFF7F3FB08B100F09FF8F3
:105510005FF0010204F10A0104F10C00FFF77CFCCA
:1055200004F1C0090FF248180FF2301549A62D4FAB
:10553000607A0028FCD03A46314604F15C0000F065
:10554000C7F804F15C00FBF7B7FE606504F1580290
:10555000294604F15C0000F0DBF8A06D206000211A
:10556000227800F04BF86278012100F047F8A27829
:10557000022100F043F8E278032100F03FF8002117
:1055800000F03AF82071012100F036F86071022134
:1055900000F032F8A071032100F02EF8E07160688D
:1055A00000F0CAF802460B464146484600F090F823
:1055B0004846FBF781FE82B24FF47A73494604F104
:1055C0000C00FFF7D0FB002060724FF4FA7000F07F
:1055D00059F8206D401C2065AAE700000038014002
:1055E00090000020B4010020180200201810024092
:1055F00000540040A0860100A02027E7A0200EE76D
:1056000018B58FB005A82821FFF734FB6846142190
:10561000FFF730FB012109911022002102240A9298
:105620000C91059405A8FEF76FFF08B100F00FF884
:105630000F2000900021019102910391049168468E
:10564000FFF7F2F808B100F002F810B010BD72B622
:10565000FEE7000025730D0A00000000252A5B5EAE
:10566000303132333435363738395D256600000045
:10567000656570726F6D2076616C75652069733A2F
:105680002566000038B50446FFF7A4F914F1010FB0
:10569000054602D0044908780419FFF79BF9401B1E
:1056A000A042FAD331BD00BF0000002080B50748FA
:1056B000016841F0100101600320FFF79EF900200E
:1056C000FFF7DCFAFEF790FE002002BD002002404A
:1056D0000CB430B583B00A4606A9029104460025F1
:1056E0000194009502AB01A9084878441E30FAF7EE
:1056F0001FFD019A157000284EBF04460198041B37
:10570000204603B030BC5DF80CFB00BF2FBDFFFF8F
:105710000DB4C0B50A4604A800210190009101AB68
:1057200003A9044878440C30FCF74EFC06BC5DF835
:1057300010FB00BF43BCFFFFC0F3C75181B1FF297D
:1057400006D0C110400721F0E04101F160517047DF
:1057500041020CBF40F4E0016FF0004100207047AF
:1057600000F0004100020AD0B0FA80FC00FA0CF010
:1057700001F16051A1EB0C5101EBD02140057047C4
:1057800010B5074979441831064C7C44163404E0BE
:105790000A68081D114488470146A142F8D110BD8E
:1057A000080000002400000097BAFFFFE00100009D
:1057B0009000002000000000F3B8FFFF9A010000F5
:1057C0008E00000000000020FEE7FEE7FEE7FEE797
:1057D000FEE770477047704700F006B80148FFF7D2
:1057E0003FBB00009C00002002494A6808788218EC
:1057F0004A6070470000002000F00DF8002801D03A
:10580000FFF7BEFFAFF300800020AFF30080FFF78B
:105810003DFE00F002F80120704700F001B80000E2
:1058200007463846FCF7A8FBFBE70000704700007E
:105830000000000000000000010203040607080940
:1058400001488047014800472D580008515800087A
:10585000AFF30080AFF30080FFF7CEFF0000000041
:105860000102030400002E004300FFF7FEBFFFF714
:10587000FEBFFFF7FEBFFFF7FEBFFFF7FEBFFFF75C
:10588000FEBFFFF7FEBFFFF7FEBFFFF7FEBFFFF74C
:10589000FEBFFFF7FEBFFFF7FEBFFFF7FEBFFFF73C
:1058A000FEBFFFF7FEBFFFF7FEBFFFF7FEBFFFF72C
:1058B000FEBFFFF7FEBFFFF7FEBFFFF7FEBFFFF71C
:1058C000FEBFFFF7FEBFFFF7FEBFFFF7FEBFFFF70C
:1058D000FEBFFFF7FEBFFFF7FEBFFFF7FEBFFFF7FC
:1058E000FEBFFFF7FEBFFFF7FEBFFFF7FEBFFFF7EC
:1058F000FEBFFFF7FEBFFFF7FEBFFFF7FEBFFFF7DC
:10590000FEBFFFF7FEBFFFF7FEBFFFF7FEBFFFF7CB
:10591000FEBFFFF7FEBFFFF7FEBFFFF7FEBFFFF7BB
:10592000FEBFFFF7FEBFFFF7FEBFFFF7FEBFFFF7AB
:10593000FEBFFFF7FEBFFFF7FEBFFFF7FEBFFFF79B
:10594000FEBFFFF7FEBFFFF7FEBFFFF7FEBFFFF78B
:10595000FEBFFFF7FEBF43010001221008F005075C
:1059600024F400645800080452FF01F20066141089
:10597000010000680C214C114822204B20022B1101
:105980000008085225081241081229045255102116
:0D5990000113091334110443EF123C2101EF
:040000050800585146
:00000001FF
